:1040000000100020C1400000DF410000FB41000023
:1040100000000000000000000000000000000000A0
:10402000000000000000000000000000DF41000070
:104030006402000000000000DF410000DF410000DA
:10404000DF410000DF410000DF410000DF410000F0
:10405000DF410000DF410000DF410000DF410000E0
:10406000DF410000DF410000DF410000DF410000D0
:10407000DF410000DF410000DF410000DF410000C0
:10408000DF410000DF410000DF410000DF410000B0
:10409000DF410000DF410000DF410000DF410000A0
:1040A000DF410000DF410000DF410000DF41000090
:1040B000DF410000DF410000DF410000DF41000080
:1040C00000F08EF8084809490022814201D004C05E
:1040D000FBE707480749084A814202D008CA08C0DE
:1040E000FAE700F00BF800DE0000002008000020D6
:1040F00000000020000000206442000080B500AFF6
:1041000000F000F880B500AF86B00A48342100F016
:1041100019F818200849ABBE002004900121019134
:10412000064900910390042002906846044900F07B
:1041300059F8C046FC410000260002003C42000045
:1041400050420000F0B503AF85B00E46044600F0C3
:1041500043F801252840019000F03AF81A4B1868FE
:10416000002803D05A68002E10D125E003200490C7
:10417000042003901548029002A92846ABBE0246CF
:10418000401C19D01D605A60002E15D002A854C0E2
:10419000052302A91846ABBE411EB1420CD205460A
:1041A00004900292301A2418039402A91846ABBE58
:1041B000411EA9422E46F2D30198002801D100F0F9
:1041C00009F805B0F0BDC0460000002060420000C4
:1041D00072B6704762B67047EFF310807047FEE723
:1041E0007047FEE780B500AF84B001AA01231381B8
:1041F000029101901046FFF7F4FFFEE748656C6CF2
:104200006F2C20776F726C64212054686973206969
:104210007320746865206D61696E206669726D77C0
:1042200061726520737065616B696E672E2E2E0A50
:10423000756E726561636861626C65003042000092
:104240000B0000007372632F6D61696E2E72730034
:10425000444200000B0000000F00000005000000B9
:084260003A747400909E1A8E5E
:00000001FF
