:1020000000040020C1200000DF210000FB210000AF
:1020100000000000000000000000000000000000C0
:10202000000000000000000000000000DF210000B0
:102030005002000000000000DF210000DF2100004E
:10204000DF210000DF210000DF210000DF21000090
:10205000DF210000DF210000DF210000DF21000080
:10206000DF210000DF210000DF210000DF21000070
:10207000DF210000DF210000DF210000DF21000060
:10208000DF210000DF210000DF210000DF21000050
:10209000DF210000DF210000DF210000DF21000040
:1020A000DF210000DF210000DF210000DF21000030
:1020B000DF210000DF210000DF210000DF21000020
:1020C00000F08EF8084809490022814201D004C07E
:1020D000FBE707480749084A814202D008CA08C0FE
:1020E000FAE700F00BF800DE0000002008000020F6
:1020F00000000020000000205022000080B500AF4A
:1021000000F000F880B500AF86B00A481E2100F04C
:1021100019F818200849ABBE002004900121019154
:10212000064900910390042002906846044900F09B
:1021300059F8C046FC2100002600020028220000B9
:102140003C220000F0B503AF85B00E46044600F017
:1021500043F801252840019000F03AF81A4B18681E
:10216000002803D05A68002E10D125E003200490E7
:10217000042003901548029002A92846ABBE0246EF
:10218000401C19D01D605A60002E15D002A854C002
:10219000052302A91846ABBE411EB1420CD205462A
:1021A00004900292301A2418039402A91846ABBE78
:1021B000411EA9422E46F2D30198002801D100F019
:1021C00009F805B0F0BDC046000000204C22000018
:1021D00072B6704762B67047EFF310807047FEE743
:1021E0007047FEE780B500AF84B001AA01231381D8
:1021F000029101901046FFF7F4FFFEE748656C6C12
:102200006F2C20776F726C642120286D61696E20BD
:102210006669726D77617265290A756E72656163B0
:102220006861626C650000001A2200000B0000006B
:102230007372632F6D61696E2E727300302200001D
:102240000B0000000F000000050000003A7474004D
:04225000E6276DC24E
:00000001FF
